:1000000075900F7580007C0A30900B3091253092EE
:100010006530935580F078FF7910800280587580A4
:10002000FF112A758000112A80F47AEED8FED9FEDD
:10003000DAFA227580009000507A0DE493F580A3DF
:05004000DAF980EF2257
:100050001BA0BFD9EDFAFFFAEDD9BFA07F5E3F2507
:100060001104000411253F5E7F7400F58004B4FF85
:10007000FA740080F422758000E5807400F5800435
:0B008000B4FFFAF58014B400FA80F021
:00000001FF
